{
  "contractName": "BetAgreement",
  "abi": [
    {
      "constant": true,
      "inputs": [],
      "name": "organizer",
      "outputs": [
        {
          "name": "adr",
          "type": "address"
        },
        {
          "name": "commission",
          "type": "uint256"
        }
      ],
      "payable": false,
      "stateMutability": "view",
      "type": "function"
    },
    {
      "constant": true,
      "inputs": [],
      "name": "people_count",
      "outputs": [
        {
          "name": "",
          "type": "uint256"
        }
      ],
      "payable": false,
      "stateMutability": "view",
      "type": "function"
    },
    {
      "constant": true,
      "inputs": [
        {
          "name": "",
          "type": "uint256"
        }
      ],
      "name": "position_price",
      "outputs": [
        {
          "name": "",
          "type": "uint256"
        }
      ],
      "payable": false,
      "stateMutability": "view",
      "type": "function"
    },
    {
      "constant": true,
      "inputs": [
        {
          "name": "",
          "type": "address"
        }
      ],
      "name": "bet_log",
      "outputs": [
        {
          "name": "",
          "type": "uint256"
        }
      ],
      "payable": false,
      "stateMutability": "view",
      "type": "function"
    },
    {
      "constant": true,
      "inputs": [],
      "name": "max_people",
      "outputs": [
        {
          "name": "",
          "type": "uint256"
        }
      ],
      "payable": false,
      "stateMutability": "view",
      "type": "function"
    },
    {
      "constant": true,
      "inputs": [],
      "name": "bet_price",
      "outputs": [
        {
          "name": "",
          "type": "uint256"
        }
      ],
      "payable": false,
      "stateMutability": "view",
      "type": "function"
    },
    {
      "inputs": [
        {
          "name": "_commission",
          "type": "uint256"
        }
      ],
      "payable": false,
      "stateMutability": "nonpayable",
      "type": "constructor"
    }
  ],
  "bytecode": "0x608060405234801561001057600080fd5b506040516020806103578339810180604052810190808051906020019092919050505060408051908101604052803373ffffffffffffffffffffffffffffffffffffffff168152602001828152506000808201518160000160006101000a81548173ffffffffffffffffffffffffffffffffffffffff021916908373ffffffffffffffffffffffffffffffffffffffff1602179055506020820151816001015590505050610294806100c36000396000f300608060405260043610610078576000357c0100000000000000000000000000000000000000000000000000000000900463ffffffff168063612032651461007d5780637b95d97d146100db5780637c18e8aa14610106578063b1abaf0d14610147578063d2a79c9c1461019e578063f631c64f146101c9575b600080fd5b34801561008957600080fd5b506100926101f4565b604051808373ffffffffffffffffffffffffffffffffffffffff1673ffffffffffffffffffffffffffffffffffffffff1681526020018281526020019250505060405180910390f35b3480156100e757600080fd5b506100f0610226565b6040518082815260200191505060405180910390f35b34801561011257600080fd5b506101316004803603810190808035906020019092919050505061022c565b6040518082815260200191505060405180910390f35b34801561015357600080fd5b50610188600480360381019080803573ffffffffffffffffffffffffffffffffffffffff169060200190929190505050610244565b6040518082815260200191505060405180910390f35b3480156101aa57600080fd5b506101b361025c565b6040518082815260200191505060405180910390f35b3480156101d557600080fd5b506101de610262565b6040518082815260200191505060405180910390f35b60008060000160009054906101000a900473ffffffffffffffffffffffffffffffffffffffff16908060010154905082565b60035481565b60056020528060005260406000206000915090505481565b60066020528060005260406000206000915090505481565b60025481565b600454815600a165627a7a72305820548d14378a81021e4e0656e3100ba11c45e4a23db8bb91671cf02455a3e302f00029",
  "source": "pragma solidity 0.4.24;\n\ncontract BetAgreement {\n\t// Defines a type representing the organizer of the bet\n\tstruct Organizer {\n\t\taddress adr;\n\t\tuint commission;\n\t}\n\t\n\tOrganizer public organizer; \n\tuint public max_people;\n\tuint public people_count;\n\tuint public bet_price;\n\tmapping (uint => uint) public position_price;\n\tmapping (address =>  uint) public bet_log;\n\n\tconstructor(uint _commission) public {\n\t\torganizer = Organizer(msg.sender, _commission);\n\t}\n\t\n}\n",
  "sourcePath": "/Users/febg/Documents/Blockchain/git/Harvest-Season-Betting-Service/Bet-Agreement/contracts/Bet-Agreement.sol",
  "compiler": {
    "name": "solc",
    "version": "0.4.24+commit.e67f0147.Emscripten.clang"
  },
  "schemaVersion": "2.0.0",
  "updatedAt": "2018-06-17T00:48:04.460Z"
}